{
  "contractName": "HorseAuction",
  "abi": [
    {
      "constant": true,
      "inputs": [],
      "name": "horseToken",
      "outputs": [
        {
          "name": "",
          "type": "address"
        }
      ],
      "payable": false,
      "stateMutability": "view",
      "type": "function"
    },
    {
      "constant": false,
      "inputs": [],
      "name": "unpause",
      "outputs": [],
      "payable": false,
      "stateMutability": "nonpayable",
      "type": "function"
    },
    {
      "constant": true,
      "inputs": [
        {
          "name": "account",
          "type": "address"
        }
      ],
      "name": "isPauser",
      "outputs": [
        {
          "name": "",
          "type": "bool"
        }
      ],
      "payable": false,
      "stateMutability": "view",
      "type": "function"
    },
    {
      "constant": true,
      "inputs": [],
      "name": "paused",
      "outputs": [
        {
          "name": "",
          "type": "bool"
        }
      ],
      "payable": false,
      "stateMutability": "view",
      "type": "function"
    },
    {
      "constant": false,
      "inputs": [],
      "name": "renouncePauser",
      "outputs": [],
      "payable": false,
      "stateMutability": "nonpayable",
      "type": "function"
    },
    {
      "constant": false,
      "inputs": [],
      "name": "renounceOwnership",
      "outputs": [],
      "payable": false,
      "stateMutability": "nonpayable",
      "type": "function"
    },
    {
      "constant": false,
      "inputs": [
        {
          "name": "account",
          "type": "address"
        }
      ],
      "name": "addPauser",
      "outputs": [],
      "payable": false,
      "stateMutability": "nonpayable",
      "type": "function"
    },
    {
      "constant": false,
      "inputs": [],
      "name": "pause",
      "outputs": [],
      "payable": false,
      "stateMutability": "nonpayable",
      "type": "function"
    },
    {
      "constant": true,
      "inputs": [],
      "name": "owner",
      "outputs": [
        {
          "name": "",
          "type": "address"
        }
      ],
      "payable": false,
      "stateMutability": "view",
      "type": "function"
    },
    {
      "constant": true,
      "inputs": [],
      "name": "isOwner",
      "outputs": [
        {
          "name": "",
          "type": "bool"
        }
      ],
      "payable": false,
      "stateMutability": "view",
      "type": "function"
    },
    {
      "constant": true,
      "inputs": [
        {
          "name": "",
          "type": "bytes32"
        }
      ],
      "name": "bundles",
      "outputs": [
        {
          "name": "amount",
          "type": "uint256"
        },
        {
          "name": "expires",
          "type": "uint256"
        },
        {
          "name": "currentBid",
          "type": "uint256"
        },
        {
          "name": "seller",
          "type": "address"
        },
        {
          "name": "highestBidder",
          "type": "address"
        }
      ],
      "payable": false,
      "stateMutability": "view",
      "type": "function"
    },
    {
      "constant": false,
      "inputs": [
        {
          "name": "newOwner",
          "type": "address"
        }
      ],
      "name": "transferOwnership",
      "outputs": [],
      "payable": false,
      "stateMutability": "nonpayable",
      "type": "function"
    },
    {
      "inputs": [],
      "payable": false,
      "stateMutability": "nonpayable",
      "type": "constructor"
    },
    {
      "anonymous": false,
      "inputs": [
        {
          "indexed": false,
          "name": "amount",
          "type": "uint256"
        },
        {
          "indexed": false,
          "name": "duration",
          "type": "uint256"
        },
        {
          "indexed": false,
          "name": "id",
          "type": "bytes32"
        }
      ],
      "name": "NewBundle",
      "type": "event"
    },
    {
      "anonymous": false,
      "inputs": [
        {
          "indexed": false,
          "name": "bundleId",
          "type": "bytes32"
        },
        {
          "indexed": false,
          "name": "currentValue",
          "type": "uint256"
        }
      ],
      "name": "NewBid",
      "type": "event"
    },
    {
      "anonymous": false,
      "inputs": [
        {
          "indexed": false,
          "name": "id",
          "type": "bytes32"
        }
      ],
      "name": "AuctionEnded",
      "type": "event"
    },
    {
      "anonymous": false,
      "inputs": [
        {
          "indexed": false,
          "name": "account",
          "type": "address"
        }
      ],
      "name": "Paused",
      "type": "event"
    },
    {
      "anonymous": false,
      "inputs": [
        {
          "indexed": false,
          "name": "account",
          "type": "address"
        }
      ],
      "name": "Unpaused",
      "type": "event"
    },
    {
      "anonymous": false,
      "inputs": [
        {
          "indexed": true,
          "name": "account",
          "type": "address"
        }
      ],
      "name": "PauserAdded",
      "type": "event"
    },
    {
      "anonymous": false,
      "inputs": [
        {
          "indexed": true,
          "name": "account",
          "type": "address"
        }
      ],
      "name": "PauserRemoved",
      "type": "event"
    },
    {
      "anonymous": false,
      "inputs": [
        {
          "indexed": true,
          "name": "previousOwner",
          "type": "address"
        },
        {
          "indexed": true,
          "name": "newOwner",
          "type": "address"
        }
      ],
      "name": "OwnershipTransferred",
      "type": "event"
    },
    {
      "constant": false,
      "inputs": [
        {
          "name": "newCommission",
          "type": "uint256"
        }
      ],
      "name": "changeCommission",
      "outputs": [],
      "payable": false,
      "stateMutability": "nonpayable",
      "type": "function"
    },
    {
      "constant": false,
      "inputs": [
        {
          "name": "amount",
          "type": "uint256"
        },
        {
          "name": "duration",
          "type": "uint256"
        }
      ],
      "name": "sell",
      "outputs": [],
      "payable": false,
      "stateMutability": "nonpayable",
      "type": "function"
    },
    {
      "constant": false,
      "inputs": [
        {
          "name": "bundleId",
          "type": "bytes32"
        }
      ],
      "name": "bid",
      "outputs": [],
      "payable": true,
      "stateMutability": "payable",
      "type": "function"
    },
    {
      "constant": false,
      "inputs": [
        {
          "name": "bundleId",
          "type": "bytes32"
        }
      ],
      "name": "withdrawBundle",
      "outputs": [],
      "payable": false,
      "stateMutability": "nonpayable",
      "type": "function"
    },
    {
      "constant": false,
      "inputs": [],
      "name": "withdraw",
      "outputs": [],
      "payable": false,
      "stateMutability": "nonpayable",
      "type": "function"
    }
  ],
  "bytecode": "0x6080604052735b0751713b2527d7f002c0c4e2a37e1219610a6b600260016101000a81548173ffffffffffffffffffffffffffffffffffffffff021916908373ffffffffffffffffffffffffffffffffffffffff160217905550600f6004553480156200006b57600080fd5b50336000806101000a81548173ffffffffffffffffffffffffffffffffffffffff021916908373ffffffffffffffffffffffffffffffffffffffff1602179055506000809054906101000a900473ffffffffffffffffffffffffffffffffffffffff1673ffffffffffffffffffffffffffffffffffffffff16600073ffffffffffffffffffffffffffffffffffffffff167f8be0079c531659141344cd1fd0a4f28419497f9722a3daafe3b4186f6b6457e060405160405180910390a3620001423362000163640100000000026401000000009004565b6000600260006101000a81548160ff02191690831515021790555062000325565b62000187816001620001cd6401000000000262001c58179091906401000000009004565b8073ffffffffffffffffffffffffffffffffffffffff167f6719d08c1888103bea251a4ed56406bd0c3e69723c8a1686e017e7bbe159b6f860405160405180910390a250565b600073ffffffffffffffffffffffffffffffffffffffff168173ffffffffffffffffffffffffffffffffffffffff16141515156200020a57600080fd5b62000225828262000290640100000000026401000000009004565b1515156200023257600080fd5b60018260000160008373ffffffffffffffffffffffffffffffffffffffff1673ffffffffffffffffffffffffffffffffffffffff16815260200190815260200160002060006101000a81548160ff0219169083151502179055505050565b60008073ffffffffffffffffffffffffffffffffffffffff168273ffffffffffffffffffffffffffffffffffffffff1614151515620002ce57600080fd5b8260000160008373ffffffffffffffffffffffffffffffffffffffff1673ffffffffffffffffffffffffffffffffffffffff16815260200190815260200160002060009054906101000a900460ff16905092915050565b611d3480620003356000396000f3006080604052600436106100f1576000357c0100000000000000000000000000000000000000000000000000000000900463ffffffff16806310c32672146100f65780633ccfd60b1461014d5780633f4ba83a1461016457806346fbf68e1461017b5780635c975abb146101d65780636ef8d66d14610205578063715018a61461021c57806382dc1ec4146102335780638456cb59146102765780638da5cb5b1461028d5780638f32d59b146102e457806393862c3b14610313578063957bb1e0146103cc578063d79875eb146103f0578063df922f3a14610427578063f2fde38b14610454578063f7baf79f14610497575b600080fd5b34801561010257600080fd5b5061010b6104c8565b604051808273ffffffffffffffffffffffffffffffffffffffff1673ffffffffffffffffffffffffffffffffffffffff16815260200191505060405180910390f35b34801561015957600080fd5b506101626104ee565b005b34801561017057600080fd5b50610179610554565b005b34801561018757600080fd5b506101bc600480360381019080803573ffffffffffffffffffffffffffffffffffffffff169060200190929190505050610603565b604051808215151515815260200191505060405180910390f35b3480156101e257600080fd5b506101eb610620565b604051808215151515815260200191505060405180910390f35b34801561021157600080fd5b5061021a610637565b005b34801561022857600080fd5b50610231610642565b005b34801561023f57600080fd5b50610274600480360381019080803573ffffffffffffffffffffffffffffffffffffffff169060200190929190505050610714565b005b34801561028257600080fd5b5061028b610734565b005b34801561029957600080fd5b506102a26107e4565b604051808273ffffffffffffffffffffffffffffffffffffffff1673ffffffffffffffffffffffffffffffffffffffff16815260200191505060405180910390f35b3480156102f057600080fd5b506102f961080d565b604051808215151515815260200191505060405180910390f35b34801561031f57600080fd5b506103426004803603810190808035600019169060200190929190505050610864565b604051808681526020018581526020018481526020018373ffffffffffffffffffffffffffffffffffffffff1673ffffffffffffffffffffffffffffffffffffffff1681526020018273ffffffffffffffffffffffffffffffffffffffff1673ffffffffffffffffffffffffffffffffffffffff1681526020019550505050505060405180910390f35b6103ee60048036038101908080356000191690602001909291905050506108da565b005b3480156103fc57600080fd5b506104256004803603810190808035906020019092919080359060200190929190505050610cf5565b005b34801561043357600080fd5b50610452600480360381019080803590602001909291905050506112e8565b005b34801561046057600080fd5b50610495600480360381019080803573ffffffffffffffffffffffffffffffffffffffff169060200190929190505050611305565b005b3480156104a357600080fd5b506104c66004803603810190808035600019169060200190929190505050611324565b005b600260019054906101000a900473ffffffffffffffffffffffffffffffffffffffff1681565b6104f661080d565b151561050157600080fd5b3373ffffffffffffffffffffffffffffffffffffffff166108fc6005549081150290604051600060405180830381858888f19350505050158015610549573d6000803e3d6000fd5b506000600581905550565b61055d33610603565b151561056857600080fd5b600260009054906101000a900460ff16151561058357600080fd5b6000600260006101000a81548160ff0219169083151502179055507f5db9ee0a495bf2e6ff9c91a7834c1ba4fdd244a5e8aa4e537bd38aeae4b073aa33604051808273ffffffffffffffffffffffffffffffffffffffff1673ffffffffffffffffffffffffffffffffffffffff16815260200191505060405180910390a1565b600061061982600161196790919063ffffffff16565b9050919050565b6000600260009054906101000a900460ff16905090565b610640336119fb565b565b61064a61080d565b151561065557600080fd5b600073ffffffffffffffffffffffffffffffffffffffff166000809054906101000a900473ffffffffffffffffffffffffffffffffffffffff1673ffffffffffffffffffffffffffffffffffffffff167f8be0079c531659141344cd1fd0a4f28419497f9722a3daafe3b4186f6b6457e060405160405180910390a360008060006101000a81548173ffffffffffffffffffffffffffffffffffffffff021916908373ffffffffffffffffffffffffffffffffffffffff160217905550565b61071d33610603565b151561072857600080fd5b61073181611a55565b50565b61073d33610603565b151561074857600080fd5b600260009054906101000a900460ff1615151561076457600080fd5b6001600260006101000a81548160ff0219169083151502179055507f62e78cea01bee320cd4e420270b5ea74000d11b0c9f74754ebdbfc544b05a25833604051808273ffffffffffffffffffffffffffffffffffffffff1673ffffffffffffffffffffffffffffffffffffffff16815260200191505060405180910390a1565b60008060009054906101000a900473ffffffffffffffffffffffffffffffffffffffff16905090565b60008060009054906101000a900473ffffffffffffffffffffffffffffffffffffffff1673ffffffffffffffffffffffffffffffffffffffff163373ffffffffffffffffffffffffffffffffffffffff1614905090565b60036020528060005260406000206000915090508060000154908060010154908060020154908060030160009054906101000a900473ffffffffffffffffffffffffffffffffffffffff16908060040160009054906101000a900473ffffffffffffffffffffffffffffffffffffffff16905085565b600081600073ffffffffffffffffffffffffffffffffffffffff1660036000836000191660001916815260200190815260200160002060030160009054906101000a900473ffffffffffffffffffffffffffffffffffffffff1673ffffffffffffffffffffffffffffffffffffffff16141515156109c0576040517f08c379a00000000000000000000000000000000000000000000000000000000081526004018080602001828103825260108152602001807f42756e646c65206e6f7420666f756e640000000000000000000000000000000081525060200191505060405180910390fd5b82600360008260001916600019168152602001908152602001600020600101544211151515610a57576040517f08c379a000000000000000000000000000000000000000000000000000000000815260040180806020018281038252600f8152602001807f41756374696f6e2065787069726564000000000000000000000000000000000081525060200191505060405180910390fd5b610a5f610620565b151515610ad4576040517f08c379a00000000000000000000000000000000000000000000000000000000081526004018080602001828103825260128152602001807f436f6e747261637420697320706175736564000000000000000000000000000081525060200191505060405180910390fd5b6003600085600019166000191681526020019081526020016000209250348360020154101515610b92576040517f08c379a00000000000000000000000000000000000000000000000000000000081526004018080602001828103825260218152602001807f596f75206d757374206f7574626964207468652063757272656e742076616c7581526020017f650000000000000000000000000000000000000000000000000000000000000081525060400191505060405180910390fd5b600073ffffffffffffffffffffffffffffffffffffffff168360040160009054906101000a900473ffffffffffffffffffffffffffffffffffffffff1673ffffffffffffffffffffffffffffffffffffffff16141515610c5c578260040160009054906101000a900473ffffffffffffffffffffffffffffffffffffffff1673ffffffffffffffffffffffffffffffffffffffff166108fc84600201549081150290604051600060405180830381858888f19350505050158015610c5a573d6000803e3d6000fd5b505b348360020181905550338360040160006101000a81548173ffffffffffffffffffffffffffffffffffffffff021916908373ffffffffffffffffffffffffffffffffffffffff1602179055507fdb578ec7204282ed3ffcec84ef9d2ca9adda7fb0c0b707010bad5cce9f18f41f84346040518083600019166000191681526020018281526020019250505060405180910390a150505050565b600080610d00610620565b151515610d75576040517f08c379a00000000000000000000000000000000000000000000000000000000081526004018080602001828103825260128152602001807f436f6e747261637420697320706175736564000000000000000000000000000081525060200191505060405180910390fd5b670de0b6b3a7640000612710028410151515610df9576040517f08c379a000000000000000000000000000000000000000000000000000000000815260040180806020018281038252601f8152602001807f4e6f7420656e6f75676820484f52534520696e20746869732062756e646c650081525060200191505060405180910390fd5b61012c83111515610e72576040517f08c379a00000000000000000000000000000000000000000000000000000000081526004018080602001828103825260158152602001807f4475726174696f6e20697320746f6f2073686f7274000000000000000000000081525060200191505060405180910390fd5b83833342604051602001808581526020018481526020018373ffffffffffffffffffffffffffffffffffffffff1673ffffffffffffffffffffffffffffffffffffffff166c010000000000000000000000000281526014018281526020019450505050506040516020818303038152906040526040518082805190602001908083835b602083101515610f1a5780518252602082019150602081019050602083039250610ef5565b6001836020036101000a03801982511681845116808217855250505050505090500191505060405180910390209150600073ffffffffffffffffffffffffffffffffffffffff1660036000846000191660001916815260200190815260200160002060030160009054906101000a900473ffffffffffffffffffffffffffffffffffffffff1673ffffffffffffffffffffffffffffffffffffffff16141515611051576040517f08c379a00000000000000000000000000000000000000000000000000000000081526004018080602001828103825260378152602001807f596f752063616e7420637265617465207477696365207468652073616d65206281526020017f756e646c6520696e20612073696e676c6520626c6f636b00000000000000000081525060400191505060405180910390fd5b60036000836000191660001916815260200190815260200160002090508381600001819055508242018160010181905550338160030160006101000a81548173ffffffffffffffffffffffffffffffffffffffff021916908373ffffffffffffffffffffffffffffffffffffffff160217905550600260019054906101000a900473ffffffffffffffffffffffffffffffffffffffff1673ffffffffffffffffffffffffffffffffffffffff166323b872dd3330876040518463ffffffff167c0100000000000000000000000000000000000000000000000000000000028152600401808473ffffffffffffffffffffffffffffffffffffffff1673ffffffffffffffffffffffffffffffffffffffff1681526020018373ffffffffffffffffffffffffffffffffffffffff1673ffffffffffffffffffffffffffffffffffffffff1681526020018281526020019350505050602060405180830381600087803b1580156111be57600080fd5b505af11580156111d2573d6000803e3d6000fd5b505050506040513d60208110156111e857600080fd5b81019080805190602001909291905050501515611293576040517f08c379a000000000000000000000000000000000000000000000000000000000815260040180806020018281038252603d8152602001807f5472616e73666572206661696c65642c2061726520776520617070726f76656481526020017f20746f207472616e7366657246726f6d207468697320616d6f756e743f00000081525060400191505060405180910390fd5b7f462535e711124967a26d3245b5900adbe917fc1c80ea323c27e45c1496417a8b848484604051808481526020018381526020018260001916600019168152602001935050505060405180910390a150505050565b6112f061080d565b15156112fb57600080fd5b8060048190555050565b61130d61080d565b151561131857600080fd5b61132181611aaf565b50565b60008082600073ffffffffffffffffffffffffffffffffffffffff1660036000836000191660001916815260200190815260200160002060030160009054906101000a900473ffffffffffffffffffffffffffffffffffffffff1673ffffffffffffffffffffffffffffffffffffffff161415151561140b576040517f08c379a00000000000000000000000000000000000000000000000000000000081526004018080602001828103825260108152602001807f42756e646c65206e6f7420666f756e640000000000000000000000000000000081525060200191505060405180910390fd5b8360036000826000191660001916815260200190815260200160002060010154421115156114a1576040517f08c379a00000000000000000000000000000000000000000000000000000000081526004018080602001828103825260178152602001807f41756374696f6e206973207374696c6c2061637469766500000000000000000081525060200191505060405180910390fd5b6003600086600019166000191681526020019081526020016000209350600084600201541115611700576004546103e885600201548115156114df57fe5b040292508360030160009054906101000a900473ffffffffffffffffffffffffffffffffffffffff1673ffffffffffffffffffffffffffffffffffffffff166108fc848660020154039081150290604051600060405180830381858888f19350505050158015611553573d6000803e3d6000fd5b508260055401600581905550600260019054906101000a900473ffffffffffffffffffffffffffffffffffffffff1673ffffffffffffffffffffffffffffffffffffffff1663a9059cbb8560040160009054906101000a900473ffffffffffffffffffffffffffffffffffffffff1686600001546040518363ffffffff167c0100000000000000000000000000000000000000000000000000000000028152600401808373ffffffffffffffffffffffffffffffffffffffff1673ffffffffffffffffffffffffffffffffffffffff16815260200182815260200192505050602060405180830381600087803b15801561164c57600080fd5b505af1158015611660573d6000803e3d6000fd5b505050506040513d602081101561167657600080fd5b810190808051906020019092919050505015156116fb576040517f08c379a000000000000000000000000000000000000000000000000000000000815260040180806020018281038252600f8152602001807f5472616e73666572206661696c6564000000000000000000000000000000000081525060200191505060405180910390fd5b61189d565b600260019054906101000a900473ffffffffffffffffffffffffffffffffffffffff1673ffffffffffffffffffffffffffffffffffffffff1663a9059cbb8560030160009054906101000a900473ffffffffffffffffffffffffffffffffffffffff1686600001546040518363ffffffff167c0100000000000000000000000000000000000000000000000000000000028152600401808373ffffffffffffffffffffffffffffffffffffffff1673ffffffffffffffffffffffffffffffffffffffff16815260200182815260200192505050602060405180830381600087803b1580156117ed57600080fd5b505af1158015611801573d6000803e3d6000fd5b505050506040513d602081101561181757600080fd5b8101908080519060200190929190505050151561189c576040517f08c379a000000000000000000000000000000000000000000000000000000000815260040180806020018281038252600f8152602001807f5472616e73666572206661696c6564000000000000000000000000000000000081525060200191505060405180910390fd5b5b600360008660001916600019168152602001908152602001600020600080820160009055600182016000905560028201600090556003820160006101000a81549073ffffffffffffffffffffffffffffffffffffffff02191690556004820160006101000a81549073ffffffffffffffffffffffffffffffffffffffff021916905550507f447d0298e6e2716a4343195759c35b277a60b76e628284d93262fa9869db99218560405180826000191660001916815260200191505060405180910390a15050505050565b60008073ffffffffffffffffffffffffffffffffffffffff168273ffffffffffffffffffffffffffffffffffffffff16141515156119a457600080fd5b8260000160008373ffffffffffffffffffffffffffffffffffffffff1673ffffffffffffffffffffffffffffffffffffffff16815260200190815260200160002060009054906101000a900460ff16905092915050565b611a0f816001611ba990919063ffffffff16565b8073ffffffffffffffffffffffffffffffffffffffff167fcd265ebaf09df2871cc7bd4133404a235ba12eff2041bb89d9c714a2621c7c7e60405160405180910390a250565b611a69816001611c5890919063ffffffff16565b8073ffffffffffffffffffffffffffffffffffffffff167f6719d08c1888103bea251a4ed56406bd0c3e69723c8a1686e017e7bbe159b6f860405160405180910390a250565b600073ffffffffffffffffffffffffffffffffffffffff168173ffffffffffffffffffffffffffffffffffffffff1614151515611aeb57600080fd5b8073ffffffffffffffffffffffffffffffffffffffff166000809054906101000a900473ffffffffffffffffffffffffffffffffffffffff1673ffffffffffffffffffffffffffffffffffffffff167f8be0079c531659141344cd1fd0a4f28419497f9722a3daafe3b4186f6b6457e060405160405180910390a3806000806101000a81548173ffffffffffffffffffffffffffffffffffffffff021916908373ffffffffffffffffffffffffffffffffffffffff16021790555050565b600073ffffffffffffffffffffffffffffffffffffffff168173ffffffffffffffffffffffffffffffffffffffff1614151515611be557600080fd5b611bef8282611967565b1515611bfa57600080fd5b60008260000160008373ffffffffffffffffffffffffffffffffffffffff1673ffffffffffffffffffffffffffffffffffffffff16815260200190815260200160002060006101000a81548160ff0219169083151502179055505050565b600073ffffffffffffffffffffffffffffffffffffffff168173ffffffffffffffffffffffffffffffffffffffff1614151515611c9457600080fd5b611c9e8282611967565b151515611caa57600080fd5b60018260000160008373ffffffffffffffffffffffffffffffffffffffff1673ffffffffffffffffffffffffffffffffffffffff16815260200190815260200160002060006101000a81548160ff02191690831515021790555050505600a165627a7a7230582053bb1a6cfe62123c4547ae4b0d900c235e2717247e62c7302c2edddd5885dbbd0029",
  "source": "pragma solidity ^0.4.24;\r\n\r\nimport \"../openzeppelin-solidity/contracts/lifecycle/Pausable.sol\";\r\nimport \"../openzeppelin-solidity/contracts/ownership/Ownable.sol\";\r\nimport \"../openzeppelin-solidity/contracts/token/ERC20/IERC20.sol\";\r\n\r\n/**\r\n    @title An auction system to sell budnles of HORSE tokens\r\n*/\r\n\r\ncontract HorseAuction is Ownable, Pausable {\r\n\r\n    uint256 constant HORSE = 1 ether; //HORSE like ether has 18 decimal places\r\n    uint256 constant MINIMAL_BUNDLE = 10000 * HORSE; //minimum HORSE in a bundle is 10000\r\n    uint256 constant MINIMAL_DURATION = 5 minutes; //minimum auction duration is 5 minutes\r\n\r\n    /**\r\n        @dev Auction bundle containing HORSE\r\n    */\r\n    struct Bundle {\r\n        uint256 amount;         //amount of HORSE in this bundle\r\n        uint256 expires;        //date at which this bundle can no longer be bet on\r\n        uint256 currentBid;     //current bid value\r\n        address seller;         //address of the seller\r\n        address highestBidder;  //address of the current highest bidder\r\n    }\r\n\r\n    /// @dev horse token access interface\r\n    IERC20 public horseToken = IERC20(0x5B0751713b2527d7f002c0c4e2a37e1219610A6B);\r\n    /// @dev matches a bundle id to the bundle\r\n    mapping(bytes32 => Bundle) public bundles;\r\n    /// @dev this is the devs equity expressed in /1000\r\n    uint256 private _commission = 15;\r\n    /// @dev total amount of fees this contract holds\r\n    uint256 private _collected;\r\n\r\n    event NewBundle(uint256 amount, uint256 duration, bytes32 id);\r\n    event NewBid(bytes32 bundleId, uint256 currentValue);\r\n    event AuctionEnded(bytes32 id);\r\n\r\n    /**\r\n        @dev Constructor\r\n        Contract can be paused\r\n    */\r\n    constructor() public\r\n    Ownable()\r\n    Pausable() {\r\n       \r\n    }\r\n    /**\r\n        @dev contract owner can change fees\r\n        Fees are expressed /1000\r\n        @param newCommission the new fees in /1000\r\n    */\r\n    function changeCommission(uint256 newCommission) external \r\n    onlyOwner() {\r\n        _commission = newCommission;\r\n    }\r\n\r\n    /**\r\n        @dev creates a bundle of HORSE to put on auction for a certain duration\r\n        @param amount The amount of HORSE to include in the bundle\r\n        @param duration Duration of the auction in seconds\r\n    */\r\n    function sell(uint256 amount, uint256 duration) external {\r\n        require(!paused(),\"Contract is paused\");\r\n\r\n        //set minimal amount to avoid bundle spamming\r\n        require(amount >= MINIMAL_BUNDLE, \"Not enough HORSE in this bundle\");\r\n        require(duration > MINIMAL_DURATION, \"Duration is too short\");\r\n        //bundle ID is the sha of amount + duration + seller address + current block timestamp\r\n        bytes32 bundleId = keccak256(abi.encodePacked(amount, duration, msg.sender, block.timestamp));\r\n        //make sure we wont destroy an existing bundle (if same amount, seller and duration and executed in the same block!)\r\n        require(bundles[bundleId].seller == address(0),\"You cant create twice the same bundle in a single block\");\r\n\r\n        Bundle storage newBundle = bundles[bundleId];\r\n        newBundle.amount = amount;\r\n        newBundle.expires = block.timestamp + duration;\r\n        newBundle.seller = msg.sender;\r\n        //transfer the required amount of HORSE from the seller to this contract\r\n        //the seller must approve this transfer first of course!\r\n        require(horseToken.transferFrom(msg.sender, address(this), amount),\"Transfer failed, are we approved to transferFrom this amount?\");\r\n\r\n        emit NewBundle(amount, duration, bundleId);\r\n    }\r\n\r\n    /**\r\n        @dev Add a new bid on a specific bundle\r\n        @param bundleId ID of the bundle to bid on\r\n        Bundle must exist and auction must not have expired\r\n    */\r\n    function bid(bytes32 bundleId) external payable \r\n    _exists(bundleId)\r\n    _active(bundleId) {\r\n        require(!paused(),\"Contract is paused\");\r\n\r\n        Bundle storage bundle = bundles[bundleId];\r\n        //Bidder must outbid the previous bidder\r\n        require(bundle.currentBid < msg.value, \"You must outbid the current value\");\r\n\r\n        //if not first bidder, send back the losers ETH!\r\n        if(bundle.highestBidder != address(0)) {\r\n            bundle.highestBidder.transfer(bundle.currentBid);\r\n        }\r\n        \r\n        //replace the older highest bidder\r\n        bundle.currentBid = msg.value;\r\n        bundle.highestBidder = msg.sender;\r\n        \r\n        emit NewBid(bundleId, msg.value);\r\n    }\r\n\r\n    /**\r\n        @dev Allows to withdraw a bundle from a completed auction\r\n        Must exist and auction must have ended\r\n        Can be called even while contract is paused\r\n        @param bundleId ID of te bundle to withdraw\r\n    */\r\n    function withdrawBundle(bytes32 bundleId) external \r\n    _exists(bundleId)\r\n    _expired(bundleId) {\r\n        Bundle storage bundle = bundles[bundleId];\r\n        //did we get any bids?\r\n        if(bundle.currentBid > 0) {\r\n            //compute the amount to keep\r\n            uint256 commission = bundle.currentBid / 1000 * _commission;\r\n            //give the seller his ETH\r\n            bundle.seller.transfer(bundle.currentBid-commission);\r\n            _collected = _collected + commission;\r\n            //give the buyer his HORSE\r\n            require(horseToken.transfer(bundle.highestBidder, bundle.amount),\"Transfer failed\");\r\n        } else {\r\n            //just give me back my horse\r\n            require(horseToken.transfer(bundle.seller, bundle.amount),\"Transfer failed\");\r\n        }\r\n        \r\n        delete(bundles[bundleId]);\r\n        emit AuctionEnded(bundleId);\r\n    }\r\n\r\n    /**\r\n        @dev Contract owner can withdraw collected auction fees\r\n    */\r\n    function withdraw() external\r\n    onlyOwner() {\r\n        msg.sender.transfer(_collected);\r\n        _collected = 0;\r\n    }\r\n\r\n    modifier _exists(bytes32 bundleId) {\r\n        require(bundles[bundleId].seller != address(0), \"Bundle not found\");\r\n        _;\r\n    }\r\n\r\n    modifier _expired(bytes32 bundleId) {\r\n        require(block.timestamp > bundles[bundleId].expires,\"Auction is still active\");\r\n        _;\r\n    }\r\n\r\n    modifier _active(bytes32 bundleId) {\r\n        require(block.timestamp <= bundles[bundleId].expires,\"Auction expired\");\r\n        _;\r\n    }\r\n\r\n}",
  "sourcePath": "D:\\Github\\knight474\\horseauction\\application\\contracts\\HorseAuction.sol",
  "compiler": {
    "name": "solc",
    "version": "0.4.24+commit.e67f0147.Emscripten.clang"
  },
  "schemaVersion": "2.0.1",
  "updatedAt": "2018-11-07T22:03:53.546Z"
}